{
  "_format": "hh-sol-artifact-1",
  "contractName": "ERC",
  "sourceName": "contracts/ERSC/erc.sol",
  "abi": [
    {
      "inputs": [
        {
          "internalType": "string",
          "name": "_name",
          "type": "string"
        },
        {
          "internalType": "string",
          "name": "_symbol",
          "type": "string"
        },
        {
          "internalType": "uint8",
          "name": "_decimals",
          "type": "uint8"
        }
      ],
      "stateMutability": "nonpayable",
      "type": "constructor"
    },
    {
      "anonymous": false,
      "inputs": [
        {
          "indexed": true,
          "internalType": "address",
          "name": "owner",
          "type": "address"
        },
        {
          "indexed": true,
          "internalType": "address",
          "name": "spender",
          "type": "address"
        },
        {
          "indexed": false,
          "internalType": "uint256",
          "name": "value",
          "type": "uint256"
        }
      ],
      "name": "Approval",
      "type": "event"
    },
    {
      "anonymous": false,
      "inputs": [
        {
          "indexed": true,
          "internalType": "address",
          "name": "from",
          "type": "address"
        },
        {
          "indexed": true,
          "internalType": "address",
          "name": "to",
          "type": "address"
        },
        {
          "indexed": false,
          "internalType": "uint256",
          "name": "value",
          "type": "uint256"
        }
      ],
      "name": "Transfer",
      "type": "event"
    },
    {
      "inputs": [
        {
          "internalType": "address",
          "name": "",
          "type": "address"
        },
        {
          "internalType": "address",
          "name": "",
          "type": "address"
        }
      ],
      "name": "allowances",
      "outputs": [
        {
          "internalType": "uint256",
          "name": "",
          "type": "uint256"
        }
      ],
      "stateMutability": "view",
      "type": "function"
    },
    {
      "inputs": [
        {
          "internalType": "address",
          "name": "account",
          "type": "address"
        }
      ],
      "name": "balanceOf",
      "outputs": [
        {
          "internalType": "uint256",
          "name": "",
          "type": "uint256"
        }
      ],
      "stateMutability": "view",
      "type": "function"
    },
    {
      "inputs": [
        {
          "internalType": "address",
          "name": "",
          "type": "address"
        }
      ],
      "name": "balances",
      "outputs": [
        {
          "internalType": "uint256",
          "name": "",
          "type": "uint256"
        }
      ],
      "stateMutability": "view",
      "type": "function"
    },
    {
      "inputs": [
        {
          "internalType": "address",
          "name": "",
          "type": "address"
        }
      ],
      "name": "companies",
      "outputs": [
        {
          "internalType": "bool",
          "name": "",
          "type": "bool"
        }
      ],
      "stateMutability": "view",
      "type": "function"
    },
    {
      "inputs": [
        {
          "internalType": "address",
          "name": "",
          "type": "address"
        },
        {
          "internalType": "uint256",
          "name": "",
          "type": "uint256"
        }
      ],
      "name": "companyEmployees",
      "outputs": [
        {
          "internalType": "address",
          "name": "",
          "type": "address"
        }
      ],
      "stateMutability": "view",
      "type": "function"
    },
    {
      "inputs": [
        {
          "internalType": "address",
          "name": "",
          "type": "address"
        }
      ],
      "name": "companyNames",
      "outputs": [
        {
          "internalType": "string",
          "name": "",
          "type": "string"
        }
      ],
      "stateMutability": "view",
      "type": "function"
    },
    {
      "inputs": [],
      "name": "decimals",
      "outputs": [
        {
          "internalType": "uint8",
          "name": "",
          "type": "uint8"
        }
      ],
      "stateMutability": "view",
      "type": "function"
    },
    {
      "inputs": [
        {
          "internalType": "address",
          "name": "",
          "type": "address"
        }
      ],
      "name": "employeeNames",
      "outputs": [
        {
          "internalType": "string",
          "name": "",
          "type": "string"
        }
      ],
      "stateMutability": "view",
      "type": "function"
    },
    {
      "inputs": [
        {
          "internalType": "address",
          "name": "",
          "type": "address"
        }
      ],
      "name": "employees",
      "outputs": [
        {
          "internalType": "bool",
          "name": "",
          "type": "bool"
        }
      ],
      "stateMutability": "view",
      "type": "function"
    },
    {
      "inputs": [
        {
          "internalType": "address",
          "name": "companyaddress",
          "type": "address"
        }
      ],
      "name": "getCompanyEmployees",
      "outputs": [
        {
          "components": [
            {
              "internalType": "address",
              "name": "employeeAddress",
              "type": "address"
            },
            {
              "internalType": "string",
              "name": "name",
              "type": "string"
            }
          ],
          "internalType": "struct ERC.Employee[]",
          "name": "",
          "type": "tuple[]"
        }
      ],
      "stateMutability": "view",
      "type": "function"
    },
    {
      "inputs": [
        {
          "internalType": "address",
          "name": "companyaddress",
          "type": "address"
        }
      ],
      "name": "getEmployeeCount",
      "outputs": [
        {
          "internalType": "uint256",
          "name": "",
          "type": "uint256"
        }
      ],
      "stateMutability": "view",
      "type": "function"
    },
    {
      "inputs": [],
      "name": "getOwner",
      "outputs": [
        {
          "internalType": "address",
          "name": "",
          "type": "address"
        }
      ],
      "stateMutability": "view",
      "type": "function"
    },
    {
      "inputs": [
        {
          "internalType": "address",
          "name": "companyaddress",
          "type": "address"
        }
      ],
      "name": "isCompanyRegistered",
      "outputs": [
        {
          "internalType": "bool",
          "name": "",
          "type": "bool"
        }
      ],
      "stateMutability": "view",
      "type": "function"
    },
    {
      "inputs": [
        {
          "internalType": "address",
          "name": "employeeaddress",
          "type": "address"
        }
      ],
      "name": "isEmployeeRegistered",
      "outputs": [
        {
          "internalType": "bool",
          "name": "",
          "type": "bool"
        }
      ],
      "stateMutability": "view",
      "type": "function"
    },
    {
      "inputs": [
        {
          "internalType": "address",
          "name": "to",
          "type": "address"
        },
        {
          "internalType": "uint256",
          "name": "amount",
          "type": "uint256"
        }
      ],
      "name": "mint",
      "outputs": [],
      "stateMutability": "nonpayable",
      "type": "function"
    },
    {
      "inputs": [],
      "name": "name",
      "outputs": [
        {
          "internalType": "string",
          "name": "",
          "type": "string"
        }
      ],
      "stateMutability": "view",
      "type": "function"
    },
    {
      "inputs": [],
      "name": "owner",
      "outputs": [
        {
          "internalType": "address",
          "name": "",
          "type": "address"
        }
      ],
      "stateMutability": "view",
      "type": "function"
    },
    {
      "inputs": [
        {
          "internalType": "address",
          "name": "companyaddress",
          "type": "address"
        },
        {
          "internalType": "string",
          "name": "companyname",
          "type": "string"
        }
      ],
      "name": "regCompany",
      "outputs": [],
      "stateMutability": "nonpayable",
      "type": "function"
    },
    {
      "inputs": [
        {
          "internalType": "address",
          "name": "employeeaddress",
          "type": "address"
        },
        {
          "internalType": "string",
          "name": "employeename",
          "type": "string"
        }
      ],
      "name": "regEmployee",
      "outputs": [],
      "stateMutability": "nonpayable",
      "type": "function"
    },
    {
      "inputs": [
        {
          "internalType": "address",
          "name": "employeeaddress",
          "type": "address"
        },
        {
          "internalType": "uint256",
          "name": "amount",
          "type": "uint256"
        }
      ],
      "name": "sendReward",
      "outputs": [],
      "stateMutability": "nonpayable",
      "type": "function"
    },
    {
      "inputs": [
        {
          "internalType": "uint256",
          "name": "amount",
          "type": "uint256"
        },
        {
          "internalType": "address",
          "name": "companyaddress",
          "type": "address"
        }
      ],
      "name": "sendToCompany",
      "outputs": [],
      "stateMutability": "nonpayable",
      "type": "function"
    },
    {
      "inputs": [],
      "name": "symbol",
      "outputs": [
        {
          "internalType": "string",
          "name": "",
          "type": "string"
        }
      ],
      "stateMutability": "view",
      "type": "function"
    }
  ],
  "bytecode": "0x60806040523480156200001157600080fd5b5060405162001519380380620015198339810160408190526200003491620001e8565b600080546001600160a01b0319163317905582516200005b9060089060208601906200008f565b508151620000719060099060208501906200008f565b50600a805460ff191660ff9290921691909117905550620002bc9050565b8280546200009d9062000269565b90600052602060002090601f016020900481019282620000c157600085556200010c565b82601f10620000dc57805160ff19168380011785556200010c565b828001600101855582156200010c579182015b828111156200010c578251825591602001919060010190620000ef565b506200011a9291506200011e565b5090565b5b808211156200011a57600081556001016200011f565b600082601f83011262000146578081fd5b81516001600160401b0380821115620001635762000163620002a6565b604051601f8301601f19908116603f011681019082821181831017156200018e576200018e620002a6565b81604052838152602092508683858801011115620001aa578485fd5b8491505b83821015620001cd5785820183015181830184015290820190620001ae565b83821115620001de57848385830101525b9695505050505050565b600080600060608486031215620001fd578283fd5b83516001600160401b038082111562000214578485fd5b620002228783880162000135565b9450602086015191508082111562000238578384fd5b50620002478682870162000135565b925050604084015160ff811681146200025e578182fd5b809150509250925092565b600181811c908216806200027e57607f821691505b60208210811415620002a057634e487b7160e01b600052602260045260246000fd5b50919050565b634e487b7160e01b600052604160045260246000fd5b61124d80620002cc6000396000f3fe608060405234801561001057600080fd5b50600436106101425760003560e01c806356ea04a3116100b85780639d88ebb61161007c5780639d88ebb61461033c5780639e723f4e14610368578063d06789471461037b578063daeca1151461039e578063ee7f4e43146103b1578063f5418cd7146103c457600080fd5b806356ea04a3146102bb57806370a08231146102e7578063893d20e8146103105780638da5cb5b1461032157806395d89b411461033457600080fd5b806327e235e31161010a57806327e235e3146101eb578063313ce5671461020b5780633173e2521461022a578063355e6ce81461024a57806340c10f191461027d57806355b6ed5c1461029057600080fd5b8063021fa6561461014757806306fdde031461017757806307420a411461018c5780631123fcce146101a1578063268ea117146101d8575b600080fd5b61015a610155366004610f6e565b6103d7565b6040516001600160a01b0390911681526020015b60405180910390f35b61017f61040f565b60405161016e9190611080565b61019f61019a366004610f6e565b61049d565b005b6101ca6101af366004610e5e565b6001600160a01b031660009081526004602052604090205490565b60405190815260200161016e565b61017f6101e6366004610e5e565b61065b565b6101ca6101f9366004610e5e565b60066020526000908152604090205481565b600a546102189060ff1681565b60405160ff909116815260200161016e565b61023d610238366004610e5e565b610674565b60405161016e9190611004565b61026d610258366004610e5e565b60016020526000908152604090205460ff1681565b604051901515815260200161016e565b61019f61028b366004610f6e565b6108b8565b6101ca61029e366004610e7f565b600560209081526000928352604080842090915290825290205481565b61026d6102c9366004610e5e565b6001600160a01b031660009081526001602052604090205460ff1690565b6101ca6102f5366004610e5e565b6001600160a01b031660009081526006602052604090205490565b6000546001600160a01b031661015a565b60005461015a906001600160a01b031681565b61017f6109c3565b61026d61034a366004610e5e565b6001600160a01b031660009081526002602052604090205460ff1690565b61019f610376366004610f97565b6109d0565b61026d610389366004610e5e565b60026020526000908152604090205460ff1681565b61019f6103ac366004610eb1565b610afd565b61017f6103bf366004610e5e565b610c26565b61019f6103d2366004610eb1565b610c3f565b600460205281600052604060002081815481106103f357600080fd5b6000918252602090912001546001600160a01b03169150829050565b6008805461041c90611195565b80601f016020809104026020016040519081016040528092919081815260200182805461044890611195565b80156104955780601f1061046a57610100808354040283529160200191610495565b820191906000526020600020905b81548152906001019060200180831161047857829003601f168201915b505050505081565b3360009081526001602052604090205460ff166104d55760405162461bcd60e51b81526004016104cc90611115565b60405180910390fd5b6001600160a01b03821660009081526002602052604090205460ff166105505760405162461bcd60e51b815260206004820152602a60248201527f41646472657373206d757374206265207265676973746572656420617320616e6044820152691032b6b83637bcb2b29760b11b60648201526084016104cc565b600081116105705760405162461bcd60e51b81526004016104cc90611093565b336000908152600660205260409020548111156105c55760405162461bcd60e51b81526020600482015260136024820152722737ba1032b737bab3b4103130b630b731b29760691b60448201526064016104cc565b33600090815260066020526040812080548392906105e490849061117e565b90915550506001600160a01b03821660009081526006602052604081208054839290610611908490611166565b90915550506040518181526001600160a01b0383169033907fddf252ad1be2c89b69c2b068fc378daa952ba7f163c4a11628f55a4df523b3ef906020015b60405180910390a35050565b6007602052600090815260409020805461041c90611195565b6001600160a01b0381166000908152600460205260408120546060919067ffffffffffffffff8111156106b757634e487b7160e01b600052604160045260246000fd5b6040519080825280602002602001820160405280156106fd57816020015b6040805180820190915260008152606060208201528152602001906001900390816106d55790505b50905060005b6001600160a01b0384166000908152600460205260409020548110156108b157604051806040016040528060046000876001600160a01b03166001600160a01b03168152602001908152602001600020838154811061077257634e487b7160e01b600052603260045260246000fd5b60009182526020808320909101546001600160a01b039081168452881682526004815260408220805493909101926003929190869081106107c357634e487b7160e01b600052603260045260246000fd5b60009182526020808320909101546001600160a01b03168352820192909252604001902080546107f290611195565b80601f016020809104026020016040519081016040528092919081815260200182805461081e90611195565b801561086b5780601f106108405761010080835404028352916020019161086b565b820191906000526020600020905b81548152906001019060200180831161084e57829003601f168201915b505050505081525082828151811061089357634e487b7160e01b600052603260045260246000fd5b602002602001018190525080806108a9906111d0565b915050610703565b5092915050565b6000546001600160a01b031633146108e25760405162461bcd60e51b81526004016104cc906110ca565b6001600160a01b0382166109385760405162461bcd60e51b815260206004820152601a60248201527f496e76616c696420726563697069656e7420616464726573732e00000000000060448201526064016104cc565b600081116109585760405162461bcd60e51b81526004016104cc90611093565b6001600160a01b03821660009081526006602052604081208054839290610980908490611166565b90915550506040518181526001600160a01b038316906000907fddf252ad1be2c89b69c2b068fc378daa952ba7f163c4a11628f55a4df523b3ef9060200161064f565b6009805461041c90611195565b6000546001600160a01b031633146109fa5760405162461bcd60e51b81526004016104cc906110ca565b60008211610a1a5760405162461bcd60e51b81526004016104cc90611093565b6001600160a01b03811660009081526001602052604090205460ff16610a935760405162461bcd60e51b815260206004820152602860248201527f41646472657373206d757374206265207265676973746572656420617320612060448201526731b7b6b830b73c9760c11b60648201526084016104cc565b6001600160a01b03811660009081526006602052604081208054849290610abb908490611166565b90915550506040518281526001600160a01b0382169033907fddf252ad1be2c89b69c2b068fc378daa952ba7f163c4a11628f55a4df523b3ef9060200161064f565b6000546001600160a01b03163314610b275760405162461bcd60e51b81526004016104cc906110ca565b6001600160a01b038216610b7d5760405162461bcd60e51b815260206004820152601860248201527f496e76616c696420636f6d70616e7920616464726573732e000000000000000060448201526064016104cc565b6001600160a01b03821660009081526001602052604090205460ff1615610be65760405162461bcd60e51b815260206004820152601e60248201527f436f6d70616e7920697320616c726561647920726567697374657265642e000060448201526064016104cc565b6001600160a01b0382166000908152600160208181526040808420805460ff19169093179092556007815291208251610c2192840190610da9565b505050565b6003602052600090815260409020805461041c90611195565b3360009081526001602052604090205460ff16610c6e5760405162461bcd60e51b81526004016104cc90611115565b6001600160a01b038216610cc45760405162461bcd60e51b815260206004820152601960248201527f496e76616c696420656d706c6f79656520616464726573732e0000000000000060448201526064016104cc565b6001600160a01b03821660009081526002602052604090205460ff1615610d2d5760405162461bcd60e51b815260206004820152601f60248201527f456d706c6f79656520697320616c726561647920726567697374657265642e0060448201526064016104cc565b6001600160a01b0382166000908152600260209081526040808320805460ff19166001179055600382529091208251610d6892840190610da9565b50503360009081526004602090815260408220805460018101825590835291200180546001600160a01b0319166001600160a01b0392909216919091179055565b828054610db590611195565b90600052602060002090601f016020900481019282610dd75760008555610e1d565b82601f10610df057805160ff1916838001178555610e1d565b82800160010185558215610e1d579182015b82811115610e1d578251825591602001919060010190610e02565b50610e29929150610e2d565b5090565b5b80821115610e295760008155600101610e2e565b80356001600160a01b0381168114610e5957600080fd5b919050565b600060208284031215610e6f578081fd5b610e7882610e42565b9392505050565b60008060408385031215610e91578081fd5b610e9a83610e42565b9150610ea860208401610e42565b90509250929050565b60008060408385031215610ec3578182fd5b610ecc83610e42565b9150602083013567ffffffffffffffff80821115610ee8578283fd5b818501915085601f830112610efb578283fd5b813581811115610f0d57610f0d611201565b604051601f8201601f19908116603f01168101908382118183101715610f3557610f35611201565b81604052828152886020848701011115610f4d578586fd5b82602086016020830137856020848301015280955050505050509250929050565b60008060408385031215610f80578182fd5b610f8983610e42565b946020939093013593505050565b60008060408385031215610fa9578182fd5b82359150610ea860208401610e42565b60008151808452815b81811015610fde57602081850181015186830182015201610fc2565b81811115610fef5782602083870101525b50601f01601f19169290920160200192915050565b60006020808301818452808551808352604092508286019150828160051b870101848801865b8381101561107257888303603f19018552815180516001600160a01b0316845287015187840187905261105f87850182610fb9565b958801959350509086019060010161102a565b509098975050505050505050565b602081526000610e786020830184610fb9565b6020808252601e908201527f416d6f756e74206d7573742062652067726561746572207468616e20302e0000604082015260600190565b6020808252602b908201527f4f6e6c7920636f6e7472616374206f776e65722063616e2063616c6c2074686960408201526a3990333ab731ba34b7b71760a91b606082015260800190565b60208082526031908201527f4f6e6c79207265676973746572656420636f6d70616e6965732063616e2063616040820152703636103a3434b990333ab731ba34b7b71760791b606082015260800190565b60008219821115611179576111796111eb565b500190565b600082821015611190576111906111eb565b500390565b600181811c908216806111a957607f821691505b602082108114156111ca57634e487b7160e01b600052602260045260246000fd5b50919050565b60006000198214156111e4576111e46111eb565b5060010190565b634e487b7160e01b600052601160045260246000fd5b634e487b7160e01b600052604160045260246000fdfea26469706673582212202639a664596c526a491e4dcc5fc9d92e10e876c8e4a1989b05222cc75c6747c964736f6c63430008040033",
  "linkReferences": {},
  "deployedLinkReferences": {}
}