{
  "_format": "hh-sol-artifact-1",
  "contractName": "ERC",
  "sourceName": "contracts/ERSC/erc.sol",
  "abi": [
    {
      "inputs": [
        {
          "internalType": "string",
          "name": "_name",
          "type": "string"
        },
        {
          "internalType": "string",
          "name": "_symbol",
          "type": "string"
        },
        {
          "internalType": "uint8",
          "name": "_decimals",
          "type": "uint8"
        }
      ],
      "stateMutability": "nonpayable",
      "type": "constructor"
    },
    {
      "anonymous": false,
      "inputs": [
        {
          "indexed": true,
          "internalType": "address",
          "name": "owner",
          "type": "address"
        },
        {
          "indexed": true,
          "internalType": "address",
          "name": "spender",
          "type": "address"
        },
        {
          "indexed": false,
          "internalType": "uint256",
          "name": "value",
          "type": "uint256"
        }
      ],
      "name": "Approval",
      "type": "event"
    },
    {
      "anonymous": false,
      "inputs": [
        {
          "indexed": true,
          "internalType": "address",
          "name": "from",
          "type": "address"
        },
        {
          "indexed": true,
          "internalType": "address",
          "name": "to",
          "type": "address"
        },
        {
          "indexed": false,
          "internalType": "uint256",
          "name": "value",
          "type": "uint256"
        }
      ],
      "name": "Transfer",
      "type": "event"
    },
    {
      "inputs": [
        {
          "internalType": "address",
          "name": "",
          "type": "address"
        },
        {
          "internalType": "address",
          "name": "",
          "type": "address"
        }
      ],
      "name": "allowances",
      "outputs": [
        {
          "internalType": "uint256",
          "name": "",
          "type": "uint256"
        }
      ],
      "stateMutability": "view",
      "type": "function"
    },
    {
      "inputs": [
        {
          "internalType": "address",
          "name": "account",
          "type": "address"
        }
      ],
      "name": "balanceOf",
      "outputs": [
        {
          "internalType": "uint256",
          "name": "",
          "type": "uint256"
        }
      ],
      "stateMutability": "view",
      "type": "function"
    },
    {
      "inputs": [
        {
          "internalType": "address",
          "name": "",
          "type": "address"
        }
      ],
      "name": "balances",
      "outputs": [
        {
          "internalType": "uint256",
          "name": "",
          "type": "uint256"
        }
      ],
      "stateMutability": "view",
      "type": "function"
    },
    {
      "inputs": [
        {
          "internalType": "address",
          "name": "",
          "type": "address"
        }
      ],
      "name": "companies",
      "outputs": [
        {
          "internalType": "bool",
          "name": "",
          "type": "bool"
        }
      ],
      "stateMutability": "view",
      "type": "function"
    },
    {
      "inputs": [
        {
          "internalType": "address",
          "name": "",
          "type": "address"
        },
        {
          "internalType": "uint256",
          "name": "",
          "type": "uint256"
        }
      ],
      "name": "companyEmployees",
      "outputs": [
        {
          "internalType": "address",
          "name": "",
          "type": "address"
        }
      ],
      "stateMutability": "view",
      "type": "function"
    },
    {
      "inputs": [
        {
          "internalType": "address",
          "name": "",
          "type": "address"
        }
      ],
      "name": "companyNames",
      "outputs": [
        {
          "internalType": "string",
          "name": "",
          "type": "string"
        }
      ],
      "stateMutability": "view",
      "type": "function"
    },
    {
      "inputs": [],
      "name": "decimals",
      "outputs": [
        {
          "internalType": "uint8",
          "name": "",
          "type": "uint8"
        }
      ],
      "stateMutability": "view",
      "type": "function"
    },
    {
      "inputs": [
        {
          "internalType": "address",
          "name": "",
          "type": "address"
        }
      ],
      "name": "employeeNames",
      "outputs": [
        {
          "internalType": "string",
          "name": "",
          "type": "string"
        }
      ],
      "stateMutability": "view",
      "type": "function"
    },
    {
      "inputs": [
        {
          "internalType": "address",
          "name": "",
          "type": "address"
        }
      ],
      "name": "employees",
      "outputs": [
        {
          "internalType": "bool",
          "name": "",
          "type": "bool"
        }
      ],
      "stateMutability": "view",
      "type": "function"
    },
    {
      "inputs": [
        {
          "internalType": "string",
          "name": "",
          "type": "string"
        }
      ],
      "name": "fileHashes",
      "outputs": [
        {
          "internalType": "bool",
          "name": "",
          "type": "bool"
        }
      ],
      "stateMutability": "view",
      "type": "function"
    },
    {
      "inputs": [
        {
          "internalType": "address",
          "name": "companyaddress",
          "type": "address"
        }
      ],
      "name": "getCompanyEmployees",
      "outputs": [
        {
          "components": [
            {
              "internalType": "address",
              "name": "employeeAddress",
              "type": "address"
            },
            {
              "internalType": "string",
              "name": "name",
              "type": "string"
            }
          ],
          "internalType": "struct ERC.Employee[]",
          "name": "",
          "type": "tuple[]"
        }
      ],
      "stateMutability": "view",
      "type": "function"
    },
    {
      "inputs": [
        {
          "internalType": "address",
          "name": "companyaddress",
          "type": "address"
        }
      ],
      "name": "getEmployeeCount",
      "outputs": [
        {
          "internalType": "uint256",
          "name": "",
          "type": "uint256"
        }
      ],
      "stateMutability": "view",
      "type": "function"
    },
    {
      "inputs": [
        {
          "internalType": "string",
          "name": "taskId",
          "type": "string"
        }
      ],
      "name": "getFileHash",
      "outputs": [
        {
          "internalType": "string",
          "name": "",
          "type": "string"
        }
      ],
      "stateMutability": "view",
      "type": "function"
    },
    {
      "inputs": [],
      "name": "getOwner",
      "outputs": [
        {
          "internalType": "address",
          "name": "",
          "type": "address"
        }
      ],
      "stateMutability": "view",
      "type": "function"
    },
    {
      "inputs": [
        {
          "internalType": "address",
          "name": "companyaddress",
          "type": "address"
        }
      ],
      "name": "isCompanyRegistered",
      "outputs": [
        {
          "internalType": "bool",
          "name": "",
          "type": "bool"
        }
      ],
      "stateMutability": "view",
      "type": "function"
    },
    {
      "inputs": [
        {
          "internalType": "address",
          "name": "employeeaddress",
          "type": "address"
        }
      ],
      "name": "isEmployeeRegistered",
      "outputs": [
        {
          "internalType": "bool",
          "name": "",
          "type": "bool"
        }
      ],
      "stateMutability": "view",
      "type": "function"
    },
    {
      "inputs": [
        {
          "internalType": "address",
          "name": "to",
          "type": "address"
        },
        {
          "internalType": "uint256",
          "name": "amount",
          "type": "uint256"
        }
      ],
      "name": "mint",
      "outputs": [],
      "stateMutability": "nonpayable",
      "type": "function"
    },
    {
      "inputs": [],
      "name": "name",
      "outputs": [
        {
          "internalType": "string",
          "name": "",
          "type": "string"
        }
      ],
      "stateMutability": "view",
      "type": "function"
    },
    {
      "inputs": [],
      "name": "owner",
      "outputs": [
        {
          "internalType": "address",
          "name": "",
          "type": "address"
        }
      ],
      "stateMutability": "view",
      "type": "function"
    },
    {
      "inputs": [
        {
          "internalType": "address",
          "name": "companyaddress",
          "type": "address"
        },
        {
          "internalType": "string",
          "name": "companyname",
          "type": "string"
        }
      ],
      "name": "regCompany",
      "outputs": [],
      "stateMutability": "nonpayable",
      "type": "function"
    },
    {
      "inputs": [
        {
          "internalType": "address",
          "name": "employeeaddress",
          "type": "address"
        },
        {
          "internalType": "string",
          "name": "employeename",
          "type": "string"
        }
      ],
      "name": "regEmployee",
      "outputs": [],
      "stateMutability": "nonpayable",
      "type": "function"
    },
    {
      "inputs": [
        {
          "internalType": "string",
          "name": "fileHash",
          "type": "string"
        },
        {
          "internalType": "string",
          "name": "taskId",
          "type": "string"
        }
      ],
      "name": "registerFile",
      "outputs": [],
      "stateMutability": "nonpayable",
      "type": "function"
    },
    {
      "inputs": [
        {
          "internalType": "address",
          "name": "employeeaddress",
          "type": "address"
        },
        {
          "internalType": "uint256",
          "name": "amount",
          "type": "uint256"
        }
      ],
      "name": "sendReward",
      "outputs": [],
      "stateMutability": "nonpayable",
      "type": "function"
    },
    {
      "inputs": [
        {
          "internalType": "uint256",
          "name": "amount",
          "type": "uint256"
        },
        {
          "internalType": "address",
          "name": "companyaddress",
          "type": "address"
        }
      ],
      "name": "sendToCompany",
      "outputs": [],
      "stateMutability": "nonpayable",
      "type": "function"
    },
    {
      "inputs": [],
      "name": "symbol",
      "outputs": [
        {
          "internalType": "string",
          "name": "",
          "type": "string"
        }
      ],
      "stateMutability": "view",
      "type": "function"
    },
    {
      "inputs": [
        {
          "internalType": "string",
          "name": "",
          "type": "string"
        }
      ],
      "name": "taskFileMapping",
      "outputs": [
        {
          "internalType": "string",
          "name": "",
          "type": "string"
        }
      ],
      "stateMutability": "view",
      "type": "function"
    }
  ],
  "bytecode": "0x60806040523480156200001157600080fd5b50604051620019e8380380620019e88339810160408190526200003491620001e8565b600080546001600160a01b0319163317905582516200005b90600a9060208601906200008f565b5081516200007190600b9060208501906200008f565b50600c805460ff191660ff9290921691909117905550620002bc9050565b8280546200009d9062000269565b90600052602060002090601f016020900481019282620000c157600085556200010c565b82601f10620000dc57805160ff19168380011785556200010c565b828001600101855582156200010c579182015b828111156200010c578251825591602001919060010190620000ef565b506200011a9291506200011e565b5090565b5b808211156200011a57600081556001016200011f565b600082601f83011262000146578081fd5b81516001600160401b0380821115620001635762000163620002a6565b604051601f8301601f19908116603f011681019082821181831017156200018e576200018e620002a6565b81604052838152602092508683858801011115620001aa578485fd5b8491505b83821015620001cd5785820183015181830184015290820190620001ae565b83821115620001de57848385830101525b9695505050505050565b600080600060608486031215620001fd578283fd5b83516001600160401b038082111562000214578485fd5b620002228783880162000135565b9450602086015191508082111562000238578384fd5b50620002478682870162000135565b925050604084015160ff811681146200025e578182fd5b809150509250925092565b600181811c908216806200027e57607f821691505b60208210811415620002a057634e487b7160e01b600052602260045260246000fd5b50919050565b634e487b7160e01b600052604160045260246000fd5b61171c80620002cc6000396000f3fe608060405234801561001057600080fd5b506004361061018e5760003560e01c806370a08231116100de5780639e723f4e11610097578063ed79172411610071578063ed7917241461043e578063ee7f4e4314610451578063f5418cd714610464578063f880680b1461047757600080fd5b80639e723f4e146103f5578063d067894714610408578063daeca1151461042b57600080fd5b806370a082311461036157806383b3c9c51461038a578063893d20e81461039d5780638da5cb5b146103ae57806395d89b41146103c15780639d88ebb6146103c957600080fd5b8063313ce5671161014b57806340c10f191161012557806340c10f19146102c957806345275252146102dc57806355b6ed5c1461030a57806356ea04a31461033557600080fd5b8063313ce567146102575780633173e25214610276578063355e6ce81461029657600080fd5b8063021fa6561461019357806306fdde03146101c357806307420a41146101d85780631123fcce146101ed578063268ea1171461022457806327e235e314610237575b600080fd5b6101a66101a13660046112e3565b61048a565b6040516001600160a01b0390911681526020015b60405180910390f35b6101cb6104c2565b6040516101ba919061151f565b6101eb6101e63660046112e3565b610550565b005b6102166101fb366004611244565b6001600160a01b031660009081526004602052604090205490565b6040519081526020016101ba565b6101cb610232366004611244565b61070e565b610216610245366004611244565b60066020526000908152604090205481565b600c546102649060ff1681565b60405160ff90911681526020016101ba565b610289610284366004611244565b610727565b6040516101ba91906114a3565b6102b96102a4366004611244565b60016020526000908152604090205460ff1681565b60405190151581526020016101ba565b6101eb6102d73660046112e3565b61096b565b6102b96102ea36600461130c565b805160208183018101805160088252928201919093012091525460ff1681565b610216610318366004611265565b600560209081526000928352604080842090915290825290205481565b6102b9610343366004611244565b6001600160a01b031660009081526001602052604090205460ff1690565b61021661036f366004611244565b6001600160a01b031660009081526006602052604090205490565b6101cb61039836600461130c565b610a76565b6000546001600160a01b03166101a6565b6000546101a6906001600160a01b031681565b6101cb610a9a565b6102b96103d7366004611244565b6001600160a01b031660009081526002602052604090205460ff1690565b6101eb61040336600461139e565b610aa7565b6102b9610416366004611244565b60026020526000908152604090205460ff1681565b6101eb610439366004611297565b610bd4565b6101eb61044c366004611347565b610cfd565b6101cb61045f366004611244565b610ed5565b6101eb610472366004611297565b610eee565b6101cb61048536600461130c565b611058565b600460205281600052604060002081815481106104a657600080fd5b6000918252602090912001546001600160a01b03169150829050565b600a80546104cf90611664565b80601f01602080910402602001604051908101604052809291908181526020018280546104fb90611664565b80156105485780601f1061051d57610100808354040283529160200191610548565b820191906000526020600020905b81548152906001019060200180831161052b57829003601f168201915b505050505081565b3360009081526001602052604090205460ff166105885760405162461bcd60e51b815260040161057f906115b4565b60405180910390fd5b6001600160a01b03821660009081526002602052604090205460ff166106035760405162461bcd60e51b815260206004820152602a60248201527f41646472657373206d757374206265207265676973746572656420617320616e6044820152691032b6b83637bcb2b29760b11b606482015260840161057f565b600081116106235760405162461bcd60e51b815260040161057f90611532565b336000908152600660205260409020548111156106785760405162461bcd60e51b81526020600482015260136024820152722737ba1032b737bab3b4103130b630b731b29760691b604482015260640161057f565b336000908152600660205260408120805483929061069790849061161d565b90915550506001600160a01b038216600090815260066020526040812080548392906106c4908490611605565b90915550506040518181526001600160a01b0383169033907fddf252ad1be2c89b69c2b068fc378daa952ba7f163c4a11628f55a4df523b3ef906020015b60405180910390a35050565b600760205260009081526040902080546104cf90611664565b6001600160a01b0381166000908152600460205260408120546060919067ffffffffffffffff81111561076a57634e487b7160e01b600052604160045260246000fd5b6040519080825280602002602001820160405280156107b057816020015b6040805180820190915260008152606060208201528152602001906001900390816107885790505b50905060005b6001600160a01b03841660009081526004602052604090205481101561096457604051806040016040528060046000876001600160a01b03166001600160a01b03168152602001908152602001600020838154811061082557634e487b7160e01b600052603260045260246000fd5b60009182526020808320909101546001600160a01b0390811684528816825260048152604082208054939091019260039291908690811061087657634e487b7160e01b600052603260045260246000fd5b60009182526020808320909101546001600160a01b03168352820192909252604001902080546108a590611664565b80601f01602080910402602001604051908101604052809291908181526020018280546108d190611664565b801561091e5780601f106108f35761010080835404028352916020019161091e565b820191906000526020600020905b81548152906001019060200180831161090157829003601f168201915b505050505081525082828151811061094657634e487b7160e01b600052603260045260246000fd5b6020026020010181905250808061095c9061169f565b9150506107b6565b5092915050565b6000546001600160a01b031633146109955760405162461bcd60e51b815260040161057f90611569565b6001600160a01b0382166109eb5760405162461bcd60e51b815260206004820152601a60248201527f496e76616c696420726563697069656e7420616464726573732e000000000000604482015260640161057f565b60008111610a0b5760405162461bcd60e51b815260040161057f90611532565b6001600160a01b03821660009081526006602052604081208054839290610a33908490611605565b90915550506040518181526001600160a01b038316906000907fddf252ad1be2c89b69c2b068fc378daa952ba7f163c4a11628f55a4df523b3ef90602001610702565b8051602081830181018051600982529282019190930120915280546104cf90611664565b600b80546104cf90611664565b6000546001600160a01b03163314610ad15760405162461bcd60e51b815260040161057f90611569565b60008211610af15760405162461bcd60e51b815260040161057f90611532565b6001600160a01b03811660009081526001602052604090205460ff16610b6a5760405162461bcd60e51b815260206004820152602860248201527f41646472657373206d757374206265207265676973746572656420617320612060448201526731b7b6b830b73c9760c11b606482015260840161057f565b6001600160a01b03811660009081526006602052604081208054849290610b92908490611605565b90915550506040518281526001600160a01b0382169033907fddf252ad1be2c89b69c2b068fc378daa952ba7f163c4a11628f55a4df523b3ef90602001610702565b6000546001600160a01b03163314610bfe5760405162461bcd60e51b815260040161057f90611569565b6001600160a01b038216610c545760405162461bcd60e51b815260206004820152601860248201527f496e76616c696420636f6d70616e7920616464726573732e0000000000000000604482015260640161057f565b6001600160a01b03821660009081526001602052604090205460ff1615610cbd5760405162461bcd60e51b815260206004820152601e60248201527f436f6d70616e7920697320616c726561647920726567697374657265642e0000604482015260640161057f565b6001600160a01b0382166000908152600160208181526040808420805460ff19169093179092556007815291208251610cf892840190611108565b505050565b3360009081526001602052604090205460ff16610d2c5760405162461bcd60e51b815260040161057f906115b4565b600882604051610d3c91906113ec565b9081526040519081900360200190205460ff1615610d9c5760405162461bcd60e51b815260206004820181905260248201527f46696c65206861736820697320616c726561647920726567697374657265642e604482015260640161057f565b80604051602001610dad91906113ec565b60405160208183030381529060405280519060200120600983604051610dd391906113ec565b9081526020016040518091039020604051602001610df19190611408565b604051602081830303815290604052805190602001201415610e715760405162461bcd60e51b815260206004820152603360248201527f412066696c652077697468207468652073616d65207461736b2049442069732060448201527230b63932b0b23c903932b3b4b9ba32b932b21760691b606482015260840161057f565b6001600883604051610e8391906113ec565b908152604051908190036020018120805492151560ff19909316929092179091558290600990610eb49084906113ec565b90815260200160405180910390209080519060200190610cf8929190611108565b600360205260009081526040902080546104cf90611664565b3360009081526001602052604090205460ff16610f1d5760405162461bcd60e51b815260040161057f906115b4565b6001600160a01b038216610f735760405162461bcd60e51b815260206004820152601960248201527f496e76616c696420656d706c6f79656520616464726573732e00000000000000604482015260640161057f565b6001600160a01b03821660009081526002602052604090205460ff1615610fdc5760405162461bcd60e51b815260206004820152601f60248201527f456d706c6f79656520697320616c726561647920726567697374657265642e00604482015260640161057f565b6001600160a01b0382166000908152600260209081526040808320805460ff1916600117905560038252909120825161101792840190611108565b50503360009081526004602090815260408220805460018101825590835291200180546001600160a01b0319166001600160a01b0392909216919091179055565b606060098260405161106a91906113ec565b9081526020016040518091039020805461108390611664565b80601f01602080910402602001604051908101604052809291908181526020018280546110af90611664565b80156110fc5780601f106110d1576101008083540402835291602001916110fc565b820191906000526020600020905b8154815290600101906020018083116110df57829003601f168201915b50505050509050919050565b82805461111490611664565b90600052602060002090601f016020900481019282611136576000855561117c565b82601f1061114f57805160ff191683800117855561117c565b8280016001018555821561117c579182015b8281111561117c578251825591602001919060010190611161565b5061118892915061118c565b5090565b5b80821115611188576000815560010161118d565b80356001600160a01b03811681146111b857600080fd5b919050565b600082601f8301126111cd578081fd5b813567ffffffffffffffff808211156111e8576111e86116d0565b604051601f8301601f19908116603f01168101908282118183101715611210576112106116d0565b81604052838152866020858801011115611228578485fd5b8360208701602083013792830160200193909352509392505050565b600060208284031215611255578081fd5b61125e826111a1565b9392505050565b60008060408385031215611277578081fd5b611280836111a1565b915061128e602084016111a1565b90509250929050565b600080604083850312156112a9578182fd5b6112b2836111a1565b9150602083013567ffffffffffffffff8111156112cd578182fd5b6112d9858286016111bd565b9150509250929050565b600080604083850312156112f5578182fd5b6112fe836111a1565b946020939093013593505050565b60006020828403121561131d578081fd5b813567ffffffffffffffff811115611333578182fd5b61133f848285016111bd565b949350505050565b60008060408385031215611359578182fd5b823567ffffffffffffffff80821115611370578384fd5b61137c868387016111bd565b93506020850135915080821115611391578283fd5b506112d9858286016111bd565b600080604083850312156113b0578182fd5b8235915061128e602084016111a1565b600081518084526113d8816020860160208601611634565b601f01601f19169290920160200192915050565b600082516113fe818460208701611634565b9190910192915050565b600080835482600182811c91508083168061142457607f831692505b602080841082141561144457634e487b7160e01b87526022600452602487fd5b818015611458576001811461146957611495565b60ff19861689528489019650611495565b60008a815260209020885b8681101561148d5781548b820152908501908301611474565b505084890196505b509498975050505050505050565b60006020808301818452808551808352604092508286019150828160051b870101848801865b8381101561151157888303603f19018552815180516001600160a01b031684528701518784018790526114fe878501826113c0565b95880195935050908601906001016114c9565b509098975050505050505050565b60208152600061125e60208301846113c0565b6020808252601e908201527f416d6f756e74206d7573742062652067726561746572207468616e20302e0000604082015260600190565b6020808252602b908201527f4f6e6c7920636f6e7472616374206f776e65722063616e2063616c6c2074686960408201526a3990333ab731ba34b7b71760a91b606082015260800190565b60208082526031908201527f4f6e6c79207265676973746572656420636f6d70616e6965732063616e2063616040820152703636103a3434b990333ab731ba34b7b71760791b606082015260800190565b60008219821115611618576116186116ba565b500190565b60008282101561162f5761162f6116ba565b500390565b60005b8381101561164f578181015183820152602001611637565b8381111561165e576000848401525b50505050565b600181811c9082168061167857607f821691505b6020821081141561169957634e487b7160e01b600052602260045260246000fd5b50919050565b60006000198214156116b3576116b36116ba565b5060010190565b634e487b7160e01b600052601160045260246000fd5b634e487b7160e01b600052604160045260246000fdfea26469706673582212201e5730640db564456f52b705e1922a4f85b77af5a8994c5844a468323801631264736f6c63430008040033",
  "linkReferences": {},
  "deployedLinkReferences": {}
}