{
  "_format": "hh-sol-artifact-1",
  "contractName": "ERC",
  "sourceName": "contracts/ERSC/erc.sol",
  "abi": [
    {
      "inputs": [
        {
          "internalType": "string",
          "name": "_name",
          "type": "string"
        },
        {
          "internalType": "string",
          "name": "_symbol",
          "type": "string"
        },
        {
          "internalType": "uint8",
          "name": "_decimals",
          "type": "uint8"
        }
      ],
      "stateMutability": "nonpayable",
      "type": "constructor"
    },
    {
      "anonymous": false,
      "inputs": [
        {
          "indexed": true,
          "internalType": "address",
          "name": "owner",
          "type": "address"
        },
        {
          "indexed": true,
          "internalType": "address",
          "name": "spender",
          "type": "address"
        },
        {
          "indexed": false,
          "internalType": "uint256",
          "name": "value",
          "type": "uint256"
        }
      ],
      "name": "Approval",
      "type": "event"
    },
    {
      "anonymous": false,
      "inputs": [
        {
          "indexed": true,
          "internalType": "address",
          "name": "from",
          "type": "address"
        },
        {
          "indexed": true,
          "internalType": "address",
          "name": "to",
          "type": "address"
        },
        {
          "indexed": false,
          "internalType": "uint256",
          "name": "value",
          "type": "uint256"
        }
      ],
      "name": "Transfer",
      "type": "event"
    },
    {
      "inputs": [
        {
          "internalType": "address",
          "name": "",
          "type": "address"
        },
        {
          "internalType": "address",
          "name": "",
          "type": "address"
        }
      ],
      "name": "allowances",
      "outputs": [
        {
          "internalType": "uint256",
          "name": "",
          "type": "uint256"
        }
      ],
      "stateMutability": "view",
      "type": "function"
    },
    {
      "inputs": [
        {
          "internalType": "address",
          "name": "account",
          "type": "address"
        }
      ],
      "name": "balanceOf",
      "outputs": [
        {
          "internalType": "uint256",
          "name": "",
          "type": "uint256"
        }
      ],
      "stateMutability": "view",
      "type": "function"
    },
    {
      "inputs": [
        {
          "internalType": "address",
          "name": "",
          "type": "address"
        }
      ],
      "name": "balances",
      "outputs": [
        {
          "internalType": "uint256",
          "name": "",
          "type": "uint256"
        }
      ],
      "stateMutability": "view",
      "type": "function"
    },
    {
      "inputs": [
        {
          "internalType": "address",
          "name": "",
          "type": "address"
        }
      ],
      "name": "companies",
      "outputs": [
        {
          "internalType": "bool",
          "name": "",
          "type": "bool"
        }
      ],
      "stateMutability": "view",
      "type": "function"
    },
    {
      "inputs": [
        {
          "internalType": "address",
          "name": "",
          "type": "address"
        },
        {
          "internalType": "uint256",
          "name": "",
          "type": "uint256"
        }
      ],
      "name": "companyEmployees",
      "outputs": [
        {
          "internalType": "address",
          "name": "",
          "type": "address"
        }
      ],
      "stateMutability": "view",
      "type": "function"
    },
    {
      "inputs": [
        {
          "internalType": "address",
          "name": "",
          "type": "address"
        }
      ],
      "name": "companyNames",
      "outputs": [
        {
          "internalType": "string",
          "name": "",
          "type": "string"
        }
      ],
      "stateMutability": "view",
      "type": "function"
    },
    {
      "inputs": [],
      "name": "decimals",
      "outputs": [
        {
          "internalType": "uint8",
          "name": "",
          "type": "uint8"
        }
      ],
      "stateMutability": "view",
      "type": "function"
    },
    {
      "inputs": [
        {
          "internalType": "address",
          "name": "",
          "type": "address"
        }
      ],
      "name": "employeeNames",
      "outputs": [
        {
          "internalType": "string",
          "name": "",
          "type": "string"
        }
      ],
      "stateMutability": "view",
      "type": "function"
    },
    {
      "inputs": [
        {
          "internalType": "address",
          "name": "",
          "type": "address"
        }
      ],
      "name": "employees",
      "outputs": [
        {
          "internalType": "bool",
          "name": "",
          "type": "bool"
        }
      ],
      "stateMutability": "view",
      "type": "function"
    },
    {
      "inputs": [
        {
          "internalType": "string",
          "name": "",
          "type": "string"
        }
      ],
      "name": "fileHashes",
      "outputs": [
        {
          "internalType": "bool",
          "name": "",
          "type": "bool"
        }
      ],
      "stateMutability": "view",
      "type": "function"
    },
    {
      "inputs": [
        {
          "internalType": "string",
          "name": "employeeName",
          "type": "string"
        }
      ],
      "name": "getAwardHash",
      "outputs": [
        {
          "internalType": "string",
          "name": "",
          "type": "string"
        }
      ],
      "stateMutability": "view",
      "type": "function"
    },
    {
      "inputs": [
        {
          "internalType": "address",
          "name": "companyaddress",
          "type": "address"
        }
      ],
      "name": "getCompanyEmployees",
      "outputs": [
        {
          "components": [
            {
              "internalType": "address",
              "name": "employeeAddress",
              "type": "address"
            },
            {
              "internalType": "string",
              "name": "name",
              "type": "string"
            }
          ],
          "internalType": "struct ERC.Employee[]",
          "name": "",
          "type": "tuple[]"
        }
      ],
      "stateMutability": "view",
      "type": "function"
    },
    {
      "inputs": [
        {
          "internalType": "address",
          "name": "companyaddress",
          "type": "address"
        }
      ],
      "name": "getEmployeeCount",
      "outputs": [
        {
          "internalType": "uint256",
          "name": "",
          "type": "uint256"
        }
      ],
      "stateMutability": "view",
      "type": "function"
    },
    {
      "inputs": [
        {
          "internalType": "string",
          "name": "taskId",
          "type": "string"
        }
      ],
      "name": "getFileHash",
      "outputs": [
        {
          "internalType": "string",
          "name": "",
          "type": "string"
        }
      ],
      "stateMutability": "view",
      "type": "function"
    },
    {
      "inputs": [],
      "name": "getOwner",
      "outputs": [
        {
          "internalType": "address",
          "name": "",
          "type": "address"
        }
      ],
      "stateMutability": "view",
      "type": "function"
    },
    {
      "inputs": [
        {
          "internalType": "address",
          "name": "companyaddress",
          "type": "address"
        }
      ],
      "name": "isCompanyRegistered",
      "outputs": [
        {
          "internalType": "bool",
          "name": "",
          "type": "bool"
        }
      ],
      "stateMutability": "view",
      "type": "function"
    },
    {
      "inputs": [
        {
          "internalType": "address",
          "name": "employeeaddress",
          "type": "address"
        }
      ],
      "name": "isEmployeeRegistered",
      "outputs": [
        {
          "internalType": "bool",
          "name": "",
          "type": "bool"
        }
      ],
      "stateMutability": "view",
      "type": "function"
    },
    {
      "inputs": [
        {
          "internalType": "address",
          "name": "to",
          "type": "address"
        },
        {
          "internalType": "uint256",
          "name": "amount",
          "type": "uint256"
        }
      ],
      "name": "mint",
      "outputs": [],
      "stateMutability": "nonpayable",
      "type": "function"
    },
    {
      "inputs": [],
      "name": "name",
      "outputs": [
        {
          "internalType": "string",
          "name": "",
          "type": "string"
        }
      ],
      "stateMutability": "view",
      "type": "function"
    },
    {
      "inputs": [],
      "name": "owner",
      "outputs": [
        {
          "internalType": "address",
          "name": "",
          "type": "address"
        }
      ],
      "stateMutability": "view",
      "type": "function"
    },
    {
      "inputs": [
        {
          "internalType": "address",
          "name": "companyaddress",
          "type": "address"
        },
        {
          "internalType": "string",
          "name": "companyname",
          "type": "string"
        }
      ],
      "name": "regCompany",
      "outputs": [],
      "stateMutability": "nonpayable",
      "type": "function"
    },
    {
      "inputs": [
        {
          "internalType": "address",
          "name": "employeeaddress",
          "type": "address"
        },
        {
          "internalType": "string",
          "name": "employeename",
          "type": "string"
        }
      ],
      "name": "regEmployee",
      "outputs": [],
      "stateMutability": "nonpayable",
      "type": "function"
    },
    {
      "inputs": [
        {
          "internalType": "string",
          "name": "fileHash",
          "type": "string"
        },
        {
          "internalType": "string",
          "name": "taskId",
          "type": "string"
        },
        {
          "internalType": "address",
          "name": "employeeAddress",
          "type": "address"
        },
        {
          "internalType": "uint256",
          "name": "rewardAmount",
          "type": "uint256"
        }
      ],
      "name": "registerCertificateAndSendReward",
      "outputs": [],
      "stateMutability": "nonpayable",
      "type": "function"
    },
    {
      "inputs": [
        {
          "internalType": "string",
          "name": "fileHash",
          "type": "string"
        },
        {
          "internalType": "string",
          "name": "employeeName",
          "type": "string"
        },
        {
          "internalType": "uint256",
          "name": "rewardAmount",
          "type": "uint256"
        },
        {
          "internalType": "address",
          "name": "employeeAddress",
          "type": "address"
        }
      ],
      "name": "registerFileAndSendReward",
      "outputs": [],
      "stateMutability": "nonpayable",
      "type": "function"
    },
    {
      "inputs": [
        {
          "internalType": "uint256",
          "name": "amount",
          "type": "uint256"
        },
        {
          "internalType": "address",
          "name": "companyaddress",
          "type": "address"
        }
      ],
      "name": "sendToCompany",
      "outputs": [],
      "stateMutability": "nonpayable",
      "type": "function"
    },
    {
      "inputs": [],
      "name": "symbol",
      "outputs": [
        {
          "internalType": "string",
          "name": "",
          "type": "string"
        }
      ],
      "stateMutability": "view",
      "type": "function"
    },
    {
      "inputs": [
        {
          "internalType": "string",
          "name": "",
          "type": "string"
        }
      ],
      "name": "taskFileMapping",
      "outputs": [
        {
          "internalType": "string",
          "name": "",
          "type": "string"
        }
      ],
      "stateMutability": "view",
      "type": "function"
    }
  ],
  "bytecode": "0x60806040523480156200001157600080fd5b5060405162001e0c38038062001e0c8339810160408190526200003491620001e8565b600080546001600160a01b0319163317905582516200005b90600b9060208601906200008f565b5081516200007190600c9060208501906200008f565b50600d805460ff191660ff9290921691909117905550620002bc9050565b8280546200009d9062000269565b90600052602060002090601f016020900481019282620000c157600085556200010c565b82601f10620000dc57805160ff19168380011785556200010c565b828001600101855582156200010c579182015b828111156200010c578251825591602001919060010190620000ef565b506200011a9291506200011e565b5090565b5b808211156200011a57600081556001016200011f565b600082601f83011262000146578081fd5b81516001600160401b0380821115620001635762000163620002a6565b604051601f8301601f19908116603f011681019082821181831017156200018e576200018e620002a6565b81604052838152602092508683858801011115620001aa578485fd5b8491505b83821015620001cd5785820183015181830184015290820190620001ae565b83821115620001de57848385830101525b9695505050505050565b600080600060608486031215620001fd578283fd5b83516001600160401b038082111562000214578485fd5b620002228783880162000135565b9450602086015191508082111562000238578384fd5b50620002478682870162000135565b925050604084015160ff811681146200025e578182fd5b809150509250925092565b600181811c908216806200027e57607f821691505b60208210811415620002a057634e487b7160e01b600052602260045260246000fd5b50919050565b634e487b7160e01b600052604160045260246000fd5b611b4080620002cc6000396000f3fe608060405234801561001057600080fd5b50600436106101a95760003560e01c806370a08231116100f95780639e723f4e11610097578063ee7f4e4311610071578063ee7f4e431461046c578063f5418cd71461047f578063f76abbac14610492578063f880680b146104a557600080fd5b80639e723f4e14610423578063d067894714610436578063daeca1151461045957600080fd5b80638da5cb5b116100d35780638da5cb5b146103c957806395d89b41146103dc578063965a163d146103e45780639d88ebb6146103f757600080fd5b806370a082311461037c57806383b3c9c5146103a5578063893d20e8146103b857600080fd5b80633173e25211610166578063452752521161014057806345275252146102e457806355b6ed5c1461031257806356ea04a31461033d5780636d12bd011461036957600080fd5b80633173e2521461027c578063355e6ce81461029c57806340c10f19146102cf57600080fd5b8063021fa656146101ae57806306fdde03146101de5780631123fcce146101f3578063268ea1171461022a57806327e235e31461023d578063313ce5671461025d575b600080fd5b6101c16101bc3660046115f2565b6104b8565b6040516001600160a01b0390911681526020015b60405180910390f35b6101e66104f0565b6040516101d591906118cb565b61021c610201366004611553565b6001600160a01b031660009081526005602052604090205490565b6040519081526020016101d5565b6101e6610238366004611553565b61057e565b61021c61024b366004611553565b60076020526000908152604090205481565b600d5461026a9060ff1681565b60405160ff90911681526020016101d5565b61028f61028a366004611553565b610597565b6040516101d5919061184f565b6102bf6102aa366004611553565b60026020526000908152604090205460ff1681565b60405190151581526020016101d5565b6102e26102dd3660046115f2565b6107db565b005b6102bf6102f236600461161b565b805160208183018101805160098252928201919093012091525460ff1681565b61021c610320366004611574565b600660209081526000928352604080842090915290825290205481565b6102bf61034b366004611553565b6001600160a01b031660009081526002602052604090205460ff1690565b6101e661037736600461161b565b610915565b61021c61038a366004611553565b6001600160a01b031660009081526007602052604090205490565b6101e66103b336600461161b565b6109c5565b6000546001600160a01b03166101c1565b6000546101c1906001600160a01b031681565b6101e66109e9565b6102e26103f2366004611656565b6109f6565b6102bf610405366004611553565b6001600160a01b031660009081526003602052604090205460ff1690565b6102e261043136600461174a565b610d02565b6102bf610444366004611553565b60036020526000908152604090205460ff1681565b6102e26104673660046115a6565b610e4d565b6101e661047a366004611553565b610f76565b6102e261048d3660046115a6565b610f8f565b6102e26104a03660046116cf565b6110f9565b6101e66104b336600461161b565b611405565b600560205281600052604060002081815481106104d457600080fd5b6000918252602090912001546001600160a01b03169150829050565b600b80546104fd90611a68565b80601f016020809104026020016040519081016040528092919081815260200182805461052990611a68565b80156105765780601f1061054b57610100808354040283529160200191610576565b820191906000526020600020905b81548152906001019060200180831161055957829003601f168201915b505050505081565b600860205260009081526040902080546104fd90611a68565b6001600160a01b0381166000908152600560205260408120546060919067ffffffffffffffff8111156105da57634e487b7160e01b600052604160045260246000fd5b60405190808252806020026020018201604052801561062057816020015b6040805180820190915260008152606060208201528152602001906001900390816105f85790505b50905060005b6001600160a01b0384166000908152600560205260409020548110156107d457604051806040016040528060056000876001600160a01b03166001600160a01b03168152602001908152602001600020838154811061069557634e487b7160e01b600052603260045260246000fd5b60009182526020808320909101546001600160a01b039081168452881682526005815260408220805493909101926004929190869081106106e657634e487b7160e01b600052603260045260246000fd5b60009182526020808320909101546001600160a01b031683528201929092526040019020805461071590611a68565b80601f016020809104026020016040519081016040528092919081815260200182805461074190611a68565b801561078e5780601f106107635761010080835404028352916020019161078e565b820191906000526020600020905b81548152906001019060200180831161077157829003601f168201915b50505050508152508282815181106107b657634e487b7160e01b600052603260045260246000fd5b602002602001018190525080806107cc90611aa3565b915050610626565b5092915050565b6000546001600160a01b0316331461080e5760405162461bcd60e51b8152600401610805906118de565b60405180910390fd5b6001600160a01b0382166108645760405162461bcd60e51b815260206004820152601a60248201527f496e76616c696420726563697069656e7420616464726573732e0000000000006044820152606401610805565b600081116108b45760405162461bcd60e51b815260206004820152601e60248201527f416d6f756e74206d7573742062652067726561746572207468616e20302e00006044820152606401610805565b6001600160a01b038216600090815260076020526040812080548392906108dc908490611a09565b90915550506040518181526001600160a01b03831690600090600080516020611aeb833981519152906020015b60405180910390a35050565b60606001826040516109279190611798565b9081526020016040518091039020805461094090611a68565b80601f016020809104026020016040519081016040528092919081815260200182805461096c90611a68565b80156109b95780601f1061098e576101008083540402835291602001916109b9565b820191906000526020600020905b81548152906001019060200180831161099c57829003601f168201915b50505050509050919050565b8051602081830181018051600a82529282019190930120915280546104fd90611a68565b600c80546104fd90611a68565b3360009081526002602052604090205460ff16610a255760405162461bcd60e51b81526004016108059061196e565b600984604051610a359190611798565b9081526040519081900360200190205460ff1615610a955760405162461bcd60e51b815260206004820181905260248201527f46696c65206861736820697320616c726561647920726567697374657265642e6044820152606401610805565b83604051602001610aa69190611798565b60405160208183030381529060405280519060200120600a84604051610acc9190611798565b9081526020016040518091039020604051602001610aea91906117b4565b604051602081830303815290604052805190602001201415610b6a5760405162461bcd60e51b815260206004820152603360248201527f412066696c652077697468207468652073616d65207461736b2049442069732060448201527230b63932b0b23c903932b3b4b9ba32b932b21760691b6064820152608401610805565b6001600985604051610b7c9190611798565b908152604051908190036020018120805492151560ff19909316929092179091558490600a90610bad908690611798565b90815260200160405180910390209080519060200190610bce929190611417565b506001600160a01b03821660009081526003602052604090205460ff16610c075760405162461bcd60e51b8152600401610805906119bf565b60008111610c275760405162461bcd60e51b815260040161080590611929565b33600090815260076020526040902054811115610c7c5760405162461bcd60e51b81526020600482015260136024820152722737ba1032b737bab3b4103130b630b731b29760691b6044820152606401610805565b3360009081526007602052604081208054839290610c9b908490611a21565b90915550506001600160a01b03821660009081526007602052604081208054839290610cc8908490611a09565b90915550506040518181526001600160a01b038316903390600080516020611aeb833981519152906020015b60405180910390a350505050565b6000546001600160a01b03163314610d2c5760405162461bcd60e51b8152600401610805906118de565b60008211610d7c5760405162461bcd60e51b815260206004820152601e60248201527f416d6f756e74206d7573742062652067726561746572207468616e20302e00006044820152606401610805565b6001600160a01b03811660009081526002602052604090205460ff16610df55760405162461bcd60e51b815260206004820152602860248201527f41646472657373206d757374206265207265676973746572656420617320612060448201526731b7b6b830b73c9760c11b6064820152608401610805565b6001600160a01b03811660009081526007602052604081208054849290610e1d908490611a09565b90915550506040518281526001600160a01b038216903390600080516020611aeb83398151915290602001610909565b6000546001600160a01b03163314610e775760405162461bcd60e51b8152600401610805906118de565b6001600160a01b038216610ecd5760405162461bcd60e51b815260206004820152601860248201527f496e76616c696420636f6d70616e7920616464726573732e00000000000000006044820152606401610805565b6001600160a01b03821660009081526002602052604090205460ff1615610f365760405162461bcd60e51b815260206004820152601e60248201527f436f6d70616e7920697320616c726561647920726567697374657265642e00006044820152606401610805565b6001600160a01b0382166000908152600260209081526040808320805460ff19166001179055600882529091208251610f7192840190611417565b505050565b600460205260009081526040902080546104fd90611a68565b3360009081526002602052604090205460ff16610fbe5760405162461bcd60e51b81526004016108059061196e565b6001600160a01b0382166110145760405162461bcd60e51b815260206004820152601960248201527f496e76616c696420656d706c6f79656520616464726573732e000000000000006044820152606401610805565b6001600160a01b03821660009081526003602052604090205460ff161561107d5760405162461bcd60e51b815260206004820152601f60248201527f456d706c6f79656520697320616c726561647920726567697374657265642e006044820152606401610805565b6001600160a01b0382166000908152600360209081526040808320805460ff191660011790556004825290912082516110b892840190611417565b50503360009081526005602090815260408220805460018101825590835291200180546001600160a01b0319166001600160a01b0392909216919091179055565b3360009081526002602052604090205460ff166111285760405162461bcd60e51b81526004016108059061196e565b6009846040516111389190611798565b9081526040519081900360200190205460ff16156111985760405162461bcd60e51b815260206004820181905260248201527f46696c65206861736820697320616c726561647920726567697374657265642e6044820152606401610805565b836040516020016111a99190611798565b604051602081830303815290604052805190602001206001846040516111cf9190611798565b90815260200160405180910390206040516020016111ed91906117b4565b6040516020818303038152906040528051906020012014156112775760405162461bcd60e51b815260206004820152603960248201527f412066696c652077697468207468652073616d6520656d706c6f796565206e6160448201527f6d6520697320616c726561647920726567697374657265642e000000000000006064820152608401610805565b60016009856040516112899190611798565b908152604051908190036020018120805492151560ff199093169290921790915584906001906112ba908690611798565b908152602001604051809103902090805190602001906112db929190611417565b506001600160a01b03811660009081526003602052604090205460ff166113145760405162461bcd60e51b8152600401610805906119bf565b600082116113345760405162461bcd60e51b815260040161080590611929565b336000908152600760205260409020548211156113895760405162461bcd60e51b81526020600482015260136024820152722737ba1032b737bab3b4103130b630b731b29760691b6044820152606401610805565b33600090815260076020526040812080548492906113a8908490611a21565b90915550506001600160a01b038116600090815260076020526040812080548492906113d5908490611a09565b90915550506040518281526001600160a01b038216903390600080516020611aeb83398151915290602001610cf4565b6060600a826040516109279190611798565b82805461142390611a68565b90600052602060002090601f016020900481019282611445576000855561148b565b82601f1061145e57805160ff191683800117855561148b565b8280016001018555821561148b579182015b8281111561148b578251825591602001919060010190611470565b5061149792915061149b565b5090565b5b80821115611497576000815560010161149c565b80356001600160a01b03811681146114c757600080fd5b919050565b600082601f8301126114dc578081fd5b813567ffffffffffffffff808211156114f7576114f7611ad4565b604051601f8301601f19908116603f0116810190828211818310171561151f5761151f611ad4565b81604052838152866020858801011115611537578485fd5b8360208701602083013792830160200193909352509392505050565b600060208284031215611564578081fd5b61156d826114b0565b9392505050565b60008060408385031215611586578081fd5b61158f836114b0565b915061159d602084016114b0565b90509250929050565b600080604083850312156115b8578182fd5b6115c1836114b0565b9150602083013567ffffffffffffffff8111156115dc578182fd5b6115e8858286016114cc565b9150509250929050565b60008060408385031215611604578182fd5b61160d836114b0565b946020939093013593505050565b60006020828403121561162c578081fd5b813567ffffffffffffffff811115611642578182fd5b61164e848285016114cc565b949350505050565b6000806000806080858703121561166b578182fd5b843567ffffffffffffffff80821115611682578384fd5b61168e888389016114cc565b955060208701359150808211156116a3578384fd5b506116b0878288016114cc565b9350506116bf604086016114b0565b9396929550929360600135925050565b600080600080608085870312156116e4578384fd5b843567ffffffffffffffff808211156116fb578586fd5b611707888389016114cc565b9550602087013591508082111561171c578485fd5b50611729878288016114cc565b9350506040850135915061173f606086016114b0565b905092959194509250565b6000806040838503121561175c578182fd5b8235915061159d602084016114b0565b60008151808452611784816020860160208601611a38565b601f01601f19169290920160200192915050565b600082516117aa818460208701611a38565b9190910192915050565b600080835482600182811c9150808316806117d057607f831692505b60208084108214156117f057634e487b7160e01b87526022600452602487fd5b818015611804576001811461181557611841565b60ff19861689528489019650611841565b60008a815260209020885b868110156118395781548b820152908501908301611820565b505084890196505b509498975050505050505050565b60006020808301818452808551808352604092508286019150828160051b870101848801865b838110156118bd57888303603f19018552815180516001600160a01b031684528701518784018790526118aa8785018261176c565b9588019593505090860190600101611875565b509098975050505050505050565b60208152600061156d602083018461176c565b6020808252602b908201527f4f6e6c7920636f6e7472616374206f776e65722063616e2063616c6c2074686960408201526a3990333ab731ba34b7b71760a91b606082015260800190565b60208082526025908201527f52657761726420616d6f756e74206d757374206265206772656174657220746860408201526430b710181760d91b606082015260800190565b60208082526031908201527f4f6e6c79207265676973746572656420636f6d70616e6965732063616e2063616040820152703636103a3434b990333ab731ba34b7b71760791b606082015260800190565b6020808252602a908201527f41646472657373206d757374206265207265676973746572656420617320616e6040820152691032b6b83637bcb2b29760b11b606082015260800190565b60008219821115611a1c57611a1c611abe565b500190565b600082821015611a3357611a33611abe565b500390565b60005b83811015611a53578181015183820152602001611a3b565b83811115611a62576000848401525b50505050565b600181811c90821680611a7c57607f821691505b60208210811415611a9d57634e487b7160e01b600052602260045260246000fd5b50919050565b6000600019821415611ab757611ab7611abe565b5060010190565b634e487b7160e01b600052601160045260246000fd5b634e487b7160e01b600052604160045260246000fdfeddf252ad1be2c89b69c2b068fc378daa952ba7f163c4a11628f55a4df523b3efa2646970667358221220344bd8910a6a0efb0ca32d391f3c73406ac2d9703f7a137bd5e57d5d6a6d519264736f6c63430008040033",
  "linkReferences": {},
  "deployedLinkReferences": {}
}