{
  "_format": "hh-sol-artifact-1",
  "contractName": "ERC",
  "sourceName": "contracts/ERSC/erc.sol",
  "abi": [
    {
      "inputs": [
        {
          "internalType": "string",
          "name": "_name",
          "type": "string"
        },
        {
          "internalType": "string",
          "name": "_symbol",
          "type": "string"
        },
        {
          "internalType": "uint8",
          "name": "_decimals",
          "type": "uint8"
        }
      ],
      "stateMutability": "nonpayable",
      "type": "constructor"
    },
    {
      "anonymous": false,
      "inputs": [
        {
          "indexed": true,
          "internalType": "address",
          "name": "owner",
          "type": "address"
        },
        {
          "indexed": true,
          "internalType": "address",
          "name": "spender",
          "type": "address"
        },
        {
          "indexed": false,
          "internalType": "uint256",
          "name": "value",
          "type": "uint256"
        }
      ],
      "name": "Approval",
      "type": "event"
    },
    {
      "anonymous": false,
      "inputs": [
        {
          "indexed": true,
          "internalType": "address",
          "name": "from",
          "type": "address"
        },
        {
          "indexed": true,
          "internalType": "address",
          "name": "to",
          "type": "address"
        },
        {
          "indexed": false,
          "internalType": "uint256",
          "name": "value",
          "type": "uint256"
        }
      ],
      "name": "Transfer",
      "type": "event"
    },
    {
      "inputs": [
        {
          "internalType": "address",
          "name": "",
          "type": "address"
        },
        {
          "internalType": "address",
          "name": "",
          "type": "address"
        }
      ],
      "name": "allowances",
      "outputs": [
        {
          "internalType": "uint256",
          "name": "",
          "type": "uint256"
        }
      ],
      "stateMutability": "view",
      "type": "function"
    },
    {
      "inputs": [
        {
          "internalType": "address",
          "name": "account",
          "type": "address"
        }
      ],
      "name": "balanceOf",
      "outputs": [
        {
          "internalType": "uint256",
          "name": "",
          "type": "uint256"
        }
      ],
      "stateMutability": "view",
      "type": "function"
    },
    {
      "inputs": [
        {
          "internalType": "address",
          "name": "",
          "type": "address"
        }
      ],
      "name": "balances",
      "outputs": [
        {
          "internalType": "uint256",
          "name": "",
          "type": "uint256"
        }
      ],
      "stateMutability": "view",
      "type": "function"
    },
    {
      "inputs": [
        {
          "internalType": "address",
          "name": "",
          "type": "address"
        }
      ],
      "name": "companies",
      "outputs": [
        {
          "internalType": "bool",
          "name": "",
          "type": "bool"
        }
      ],
      "stateMutability": "view",
      "type": "function"
    },
    {
      "inputs": [
        {
          "internalType": "address",
          "name": "",
          "type": "address"
        },
        {
          "internalType": "uint256",
          "name": "",
          "type": "uint256"
        }
      ],
      "name": "companyEmployees",
      "outputs": [
        {
          "internalType": "address",
          "name": "",
          "type": "address"
        }
      ],
      "stateMutability": "view",
      "type": "function"
    },
    {
      "inputs": [
        {
          "internalType": "address",
          "name": "",
          "type": "address"
        }
      ],
      "name": "companyNames",
      "outputs": [
        {
          "internalType": "string",
          "name": "",
          "type": "string"
        }
      ],
      "stateMutability": "view",
      "type": "function"
    },
    {
      "inputs": [],
      "name": "decimals",
      "outputs": [
        {
          "internalType": "uint8",
          "name": "",
          "type": "uint8"
        }
      ],
      "stateMutability": "view",
      "type": "function"
    },
    {
      "inputs": [
        {
          "internalType": "address",
          "name": "",
          "type": "address"
        }
      ],
      "name": "employeeNames",
      "outputs": [
        {
          "internalType": "string",
          "name": "",
          "type": "string"
        }
      ],
      "stateMutability": "view",
      "type": "function"
    },
    {
      "inputs": [
        {
          "internalType": "address",
          "name": "",
          "type": "address"
        }
      ],
      "name": "employees",
      "outputs": [
        {
          "internalType": "bool",
          "name": "",
          "type": "bool"
        }
      ],
      "stateMutability": "view",
      "type": "function"
    },
    {
      "inputs": [
        {
          "internalType": "string",
          "name": "",
          "type": "string"
        }
      ],
      "name": "fileHashes",
      "outputs": [
        {
          "internalType": "bool",
          "name": "",
          "type": "bool"
        }
      ],
      "stateMutability": "view",
      "type": "function"
    },
    {
      "inputs": [
        {
          "internalType": "address",
          "name": "companyaddress",
          "type": "address"
        }
      ],
      "name": "getCompanyEmployees",
      "outputs": [
        {
          "components": [
            {
              "internalType": "address",
              "name": "employeeAddress",
              "type": "address"
            },
            {
              "internalType": "string",
              "name": "name",
              "type": "string"
            }
          ],
          "internalType": "struct ERC.Employee[]",
          "name": "",
          "type": "tuple[]"
        }
      ],
      "stateMutability": "view",
      "type": "function"
    },
    {
      "inputs": [
        {
          "internalType": "address",
          "name": "companyaddress",
          "type": "address"
        }
      ],
      "name": "getEmployeeCount",
      "outputs": [
        {
          "internalType": "uint256",
          "name": "",
          "type": "uint256"
        }
      ],
      "stateMutability": "view",
      "type": "function"
    },
    {
      "inputs": [
        {
          "internalType": "string",
          "name": "taskId",
          "type": "string"
        }
      ],
      "name": "getFileHash",
      "outputs": [
        {
          "internalType": "string",
          "name": "",
          "type": "string"
        }
      ],
      "stateMutability": "view",
      "type": "function"
    },
    {
      "inputs": [],
      "name": "getOwner",
      "outputs": [
        {
          "internalType": "address",
          "name": "",
          "type": "address"
        }
      ],
      "stateMutability": "view",
      "type": "function"
    },
    {
      "inputs": [
        {
          "internalType": "address",
          "name": "companyaddress",
          "type": "address"
        }
      ],
      "name": "isCompanyRegistered",
      "outputs": [
        {
          "internalType": "bool",
          "name": "",
          "type": "bool"
        }
      ],
      "stateMutability": "view",
      "type": "function"
    },
    {
      "inputs": [
        {
          "internalType": "address",
          "name": "employeeaddress",
          "type": "address"
        }
      ],
      "name": "isEmployeeRegistered",
      "outputs": [
        {
          "internalType": "bool",
          "name": "",
          "type": "bool"
        }
      ],
      "stateMutability": "view",
      "type": "function"
    },
    {
      "inputs": [
        {
          "internalType": "address",
          "name": "to",
          "type": "address"
        },
        {
          "internalType": "uint256",
          "name": "amount",
          "type": "uint256"
        }
      ],
      "name": "mint",
      "outputs": [],
      "stateMutability": "nonpayable",
      "type": "function"
    },
    {
      "inputs": [],
      "name": "name",
      "outputs": [
        {
          "internalType": "string",
          "name": "",
          "type": "string"
        }
      ],
      "stateMutability": "view",
      "type": "function"
    },
    {
      "inputs": [],
      "name": "owner",
      "outputs": [
        {
          "internalType": "address",
          "name": "",
          "type": "address"
        }
      ],
      "stateMutability": "view",
      "type": "function"
    },
    {
      "inputs": [
        {
          "internalType": "address",
          "name": "companyaddress",
          "type": "address"
        },
        {
          "internalType": "string",
          "name": "companyname",
          "type": "string"
        }
      ],
      "name": "regCompany",
      "outputs": [],
      "stateMutability": "nonpayable",
      "type": "function"
    },
    {
      "inputs": [
        {
          "internalType": "address",
          "name": "employeeaddress",
          "type": "address"
        },
        {
          "internalType": "string",
          "name": "employeename",
          "type": "string"
        }
      ],
      "name": "regEmployee",
      "outputs": [],
      "stateMutability": "nonpayable",
      "type": "function"
    },
    {
      "inputs": [
        {
          "internalType": "string",
          "name": "fileHash",
          "type": "string"
        },
        {
          "internalType": "string",
          "name": "taskId",
          "type": "string"
        },
        {
          "internalType": "address",
          "name": "employeeAddress",
          "type": "address"
        },
        {
          "internalType": "uint256",
          "name": "rewardAmount",
          "type": "uint256"
        }
      ],
      "name": "registerCertificateAndSendReward",
      "outputs": [],
      "stateMutability": "nonpayable",
      "type": "function"
    },
    {
      "inputs": [
        {
          "internalType": "string",
          "name": "fileHash",
          "type": "string"
        },
        {
          "internalType": "string",
          "name": "employeeName",
          "type": "string"
        },
        {
          "internalType": "uint256",
          "name": "rewardAmount",
          "type": "uint256"
        },
        {
          "internalType": "address",
          "name": "employeeAddress",
          "type": "address"
        }
      ],
      "name": "registerFileAndSendReward",
      "outputs": [],
      "stateMutability": "nonpayable",
      "type": "function"
    },
    {
      "inputs": [
        {
          "internalType": "uint256",
          "name": "amount",
          "type": "uint256"
        },
        {
          "internalType": "address",
          "name": "companyaddress",
          "type": "address"
        }
      ],
      "name": "sendToCompany",
      "outputs": [],
      "stateMutability": "nonpayable",
      "type": "function"
    },
    {
      "inputs": [],
      "name": "symbol",
      "outputs": [
        {
          "internalType": "string",
          "name": "",
          "type": "string"
        }
      ],
      "stateMutability": "view",
      "type": "function"
    },
    {
      "inputs": [
        {
          "internalType": "string",
          "name": "",
          "type": "string"
        }
      ],
      "name": "taskFileMapping",
      "outputs": [
        {
          "internalType": "string",
          "name": "",
          "type": "string"
        }
      ],
      "stateMutability": "view",
      "type": "function"
    }
  ],
  "bytecode": "0x60806040523480156200001157600080fd5b5060405162001dcc38038062001dcc8339810160408190526200003491620001e8565b600080546001600160a01b0319163317905582516200005b90600b9060208601906200008f565b5081516200007190600c9060208501906200008f565b50600d805460ff191660ff9290921691909117905550620002bc9050565b8280546200009d9062000269565b90600052602060002090601f016020900481019282620000c157600085556200010c565b82601f10620000dc57805160ff19168380011785556200010c565b828001600101855582156200010c579182015b828111156200010c578251825591602001919060010190620000ef565b506200011a9291506200011e565b5090565b5b808211156200011a57600081556001016200011f565b600082601f83011262000146578081fd5b81516001600160401b0380821115620001635762000163620002a6565b604051601f8301601f19908116603f011681019082821181831017156200018e576200018e620002a6565b81604052838152602092508683858801011115620001aa578485fd5b8491505b83821015620001cd5785820183015181830184015290820190620001ae565b83821115620001de57848385830101525b9695505050505050565b600080600060608486031215620001fd578283fd5b83516001600160401b038082111562000214578485fd5b620002228783880162000135565b9450602086015191508082111562000238578384fd5b50620002478682870162000135565b925050604084015160ff811681146200025e578182fd5b809150509250925092565b600181811c908216806200027e57607f821691505b60208210811415620002a057634e487b7160e01b600052602260045260246000fd5b50919050565b634e487b7160e01b600052604160045260246000fd5b611b0080620002cc6000396000f3fe608060405234801561001057600080fd5b506004361061018e5760003560e01c806383b3c9c5116100de5780639e723f4e11610097578063ee7f4e4311610071578063ee7f4e431461043e578063f5418cd714610451578063f76abbac14610464578063f880680b1461047757600080fd5b80639e723f4e146103f5578063d067894714610408578063daeca1151461042b57600080fd5b806383b3c9c514610377578063893d20e81461038a5780638da5cb5b1461039b57806395d89b41146103ae578063965a163d146103b65780639d88ebb6146103c957600080fd5b80633173e2521161014b578063452752521161012557806345275252146102c957806355b6ed5c146102f757806356ea04a31461032257806370a082311461034e57600080fd5b80633173e25214610261578063355e6ce81461028157806340c10f19146102b457600080fd5b8063021fa6561461019357806306fdde03146101c35780631123fcce146101d8578063268ea1171461020f57806327e235e314610222578063313ce56714610242575b600080fd5b6101a66101a13660046115b2565b61048a565b6040516001600160a01b0390911681526020015b60405180910390f35b6101cb6104c2565b6040516101ba919061188b565b6102016101e6366004611513565b6001600160a01b031660009081526005602052604090205490565b6040519081526020016101ba565b6101cb61021d366004611513565b610550565b610201610230366004611513565b60076020526000908152604090205481565b600d5461024f9060ff1681565b60405160ff90911681526020016101ba565b61027461026f366004611513565b610569565b6040516101ba919061180f565b6102a461028f366004611513565b60026020526000908152604090205460ff1681565b60405190151581526020016101ba565b6102c76102c23660046115b2565b6107ad565b005b6102a46102d73660046115db565b805160208183018101805160098252928201919093012091525460ff1681565b610201610305366004611534565b600660209081526000928352604080842090915290825290205481565b6102a4610330366004611513565b6001600160a01b031660009081526002602052604090205460ff1690565b61020161035c366004611513565b6001600160a01b031660009081526007602052604090205490565b6101cb6103853660046115db565b6108e7565b6000546001600160a01b03166101a6565b6000546101a6906001600160a01b031681565b6101cb61090b565b6102c76103c4366004611616565b610918565b6102a46103d7366004611513565b6001600160a01b031660009081526003602052604090205460ff1690565b6102c761040336600461170a565b610c24565b6102a4610416366004611513565b60036020526000908152604090205460ff1681565b6102c7610439366004611566565b610d6f565b6101cb61044c366004611513565b610e98565b6102c761045f366004611566565b610eb1565b6102c761047236600461168f565b61101b565b6101cb6104853660046115db565b611327565b600560205281600052604060002081815481106104a657600080fd5b6000918252602090912001546001600160a01b03169150829050565b600b80546104cf90611a28565b80601f01602080910402602001604051908101604052809291908181526020018280546104fb90611a28565b80156105485780601f1061051d57610100808354040283529160200191610548565b820191906000526020600020905b81548152906001019060200180831161052b57829003601f168201915b505050505081565b600860205260009081526040902080546104cf90611a28565b6001600160a01b0381166000908152600560205260408120546060919067ffffffffffffffff8111156105ac57634e487b7160e01b600052604160045260246000fd5b6040519080825280602002602001820160405280156105f257816020015b6040805180820190915260008152606060208201528152602001906001900390816105ca5790505b50905060005b6001600160a01b0384166000908152600560205260409020548110156107a657604051806040016040528060056000876001600160a01b03166001600160a01b03168152602001908152602001600020838154811061066757634e487b7160e01b600052603260045260246000fd5b60009182526020808320909101546001600160a01b039081168452881682526005815260408220805493909101926004929190869081106106b857634e487b7160e01b600052603260045260246000fd5b60009182526020808320909101546001600160a01b03168352820192909252604001902080546106e790611a28565b80601f016020809104026020016040519081016040528092919081815260200182805461071390611a28565b80156107605780601f1061073557610100808354040283529160200191610760565b820191906000526020600020905b81548152906001019060200180831161074357829003601f168201915b505050505081525082828151811061078857634e487b7160e01b600052603260045260246000fd5b6020026020010181905250808061079e90611a63565b9150506105f8565b5092915050565b6000546001600160a01b031633146107e05760405162461bcd60e51b81526004016107d79061189e565b60405180910390fd5b6001600160a01b0382166108365760405162461bcd60e51b815260206004820152601a60248201527f496e76616c696420726563697069656e7420616464726573732e00000000000060448201526064016107d7565b600081116108865760405162461bcd60e51b815260206004820152601e60248201527f416d6f756e74206d7573742062652067726561746572207468616e20302e000060448201526064016107d7565b6001600160a01b038216600090815260076020526040812080548392906108ae9084906119c9565b90915550506040518181526001600160a01b03831690600090600080516020611aab833981519152906020015b60405180910390a35050565b8051602081830181018051600a82529282019190930120915280546104cf90611a28565b600c80546104cf90611a28565b3360009081526002602052604090205460ff166109475760405162461bcd60e51b81526004016107d79061192e565b6009846040516109579190611758565b9081526040519081900360200190205460ff16156109b75760405162461bcd60e51b815260206004820181905260248201527f46696c65206861736820697320616c726561647920726567697374657265642e60448201526064016107d7565b836040516020016109c89190611758565b60405160208183030381529060405280519060200120600a846040516109ee9190611758565b9081526020016040518091039020604051602001610a0c9190611774565b604051602081830303815290604052805190602001201415610a8c5760405162461bcd60e51b815260206004820152603360248201527f412066696c652077697468207468652073616d65207461736b2049442069732060448201527230b63932b0b23c903932b3b4b9ba32b932b21760691b60648201526084016107d7565b6001600985604051610a9e9190611758565b908152604051908190036020018120805492151560ff19909316929092179091558490600a90610acf908690611758565b90815260200160405180910390209080519060200190610af09291906113d7565b506001600160a01b03821660009081526003602052604090205460ff16610b295760405162461bcd60e51b81526004016107d79061197f565b60008111610b495760405162461bcd60e51b81526004016107d7906118e9565b33600090815260076020526040902054811115610b9e5760405162461bcd60e51b81526020600482015260136024820152722737ba1032b737bab3b4103130b630b731b29760691b60448201526064016107d7565b3360009081526007602052604081208054839290610bbd9084906119e1565b90915550506001600160a01b03821660009081526007602052604081208054839290610bea9084906119c9565b90915550506040518181526001600160a01b038316903390600080516020611aab833981519152906020015b60405180910390a350505050565b6000546001600160a01b03163314610c4e5760405162461bcd60e51b81526004016107d79061189e565b60008211610c9e5760405162461bcd60e51b815260206004820152601e60248201527f416d6f756e74206d7573742062652067726561746572207468616e20302e000060448201526064016107d7565b6001600160a01b03811660009081526002602052604090205460ff16610d175760405162461bcd60e51b815260206004820152602860248201527f41646472657373206d757374206265207265676973746572656420617320612060448201526731b7b6b830b73c9760c11b60648201526084016107d7565b6001600160a01b03811660009081526007602052604081208054849290610d3f9084906119c9565b90915550506040518281526001600160a01b038216903390600080516020611aab833981519152906020016108db565b6000546001600160a01b03163314610d995760405162461bcd60e51b81526004016107d79061189e565b6001600160a01b038216610def5760405162461bcd60e51b815260206004820152601860248201527f496e76616c696420636f6d70616e7920616464726573732e000000000000000060448201526064016107d7565b6001600160a01b03821660009081526002602052604090205460ff1615610e585760405162461bcd60e51b815260206004820152601e60248201527f436f6d70616e7920697320616c726561647920726567697374657265642e000060448201526064016107d7565b6001600160a01b0382166000908152600260209081526040808320805460ff19166001179055600882529091208251610e93928401906113d7565b505050565b600460205260009081526040902080546104cf90611a28565b3360009081526002602052604090205460ff16610ee05760405162461bcd60e51b81526004016107d79061192e565b6001600160a01b038216610f365760405162461bcd60e51b815260206004820152601960248201527f496e76616c696420656d706c6f79656520616464726573732e0000000000000060448201526064016107d7565b6001600160a01b03821660009081526003602052604090205460ff1615610f9f5760405162461bcd60e51b815260206004820152601f60248201527f456d706c6f79656520697320616c726561647920726567697374657265642e0060448201526064016107d7565b6001600160a01b0382166000908152600360209081526040808320805460ff19166001179055600482529091208251610fda928401906113d7565b50503360009081526005602090815260408220805460018101825590835291200180546001600160a01b0319166001600160a01b0392909216919091179055565b3360009081526002602052604090205460ff1661104a5760405162461bcd60e51b81526004016107d79061192e565b60098460405161105a9190611758565b9081526040519081900360200190205460ff16156110ba5760405162461bcd60e51b815260206004820181905260248201527f46696c65206861736820697320616c726561647920726567697374657265642e60448201526064016107d7565b836040516020016110cb9190611758565b604051602081830303815290604052805190602001206001846040516110f19190611758565b908152602001604051809103902060405160200161110f9190611774565b6040516020818303038152906040528051906020012014156111995760405162461bcd60e51b815260206004820152603960248201527f412066696c652077697468207468652073616d6520656d706c6f796565206e6160448201527f6d6520697320616c726561647920726567697374657265642e0000000000000060648201526084016107d7565b60016009856040516111ab9190611758565b908152604051908190036020018120805492151560ff199093169290921790915584906001906111dc908690611758565b908152602001604051809103902090805190602001906111fd9291906113d7565b506001600160a01b03811660009081526003602052604090205460ff166112365760405162461bcd60e51b81526004016107d79061197f565b600082116112565760405162461bcd60e51b81526004016107d7906118e9565b336000908152600760205260409020548211156112ab5760405162461bcd60e51b81526020600482015260136024820152722737ba1032b737bab3b4103130b630b731b29760691b60448201526064016107d7565b33600090815260076020526040812080548492906112ca9084906119e1565b90915550506001600160a01b038116600090815260076020526040812080548492906112f79084906119c9565b90915550506040518281526001600160a01b038216903390600080516020611aab83398151915290602001610c16565b6060600a826040516113399190611758565b9081526020016040518091039020805461135290611a28565b80601f016020809104026020016040519081016040528092919081815260200182805461137e90611a28565b80156113cb5780601f106113a0576101008083540402835291602001916113cb565b820191906000526020600020905b8154815290600101906020018083116113ae57829003601f168201915b50505050509050919050565b8280546113e390611a28565b90600052602060002090601f016020900481019282611405576000855561144b565b82601f1061141e57805160ff191683800117855561144b565b8280016001018555821561144b579182015b8281111561144b578251825591602001919060010190611430565b5061145792915061145b565b5090565b5b80821115611457576000815560010161145c565b80356001600160a01b038116811461148757600080fd5b919050565b600082601f83011261149c578081fd5b813567ffffffffffffffff808211156114b7576114b7611a94565b604051601f8301601f19908116603f011681019082821181831017156114df576114df611a94565b816040528381528660208588010111156114f7578485fd5b8360208701602083013792830160200193909352509392505050565b600060208284031215611524578081fd5b61152d82611470565b9392505050565b60008060408385031215611546578081fd5b61154f83611470565b915061155d60208401611470565b90509250929050565b60008060408385031215611578578182fd5b61158183611470565b9150602083013567ffffffffffffffff81111561159c578182fd5b6115a88582860161148c565b9150509250929050565b600080604083850312156115c4578182fd5b6115cd83611470565b946020939093013593505050565b6000602082840312156115ec578081fd5b813567ffffffffffffffff811115611602578182fd5b61160e8482850161148c565b949350505050565b6000806000806080858703121561162b578182fd5b843567ffffffffffffffff80821115611642578384fd5b61164e8883890161148c565b95506020870135915080821115611663578384fd5b506116708782880161148c565b93505061167f60408601611470565b9396929550929360600135925050565b600080600080608085870312156116a4578384fd5b843567ffffffffffffffff808211156116bb578586fd5b6116c78883890161148c565b955060208701359150808211156116dc578485fd5b506116e98782880161148c565b935050604085013591506116ff60608601611470565b905092959194509250565b6000806040838503121561171c578182fd5b8235915061155d60208401611470565b600081518084526117448160208601602086016119f8565b601f01601f19169290920160200192915050565b6000825161176a8184602087016119f8565b9190910192915050565b600080835482600182811c91508083168061179057607f831692505b60208084108214156117b057634e487b7160e01b87526022600452602487fd5b8180156117c457600181146117d557611801565b60ff19861689528489019650611801565b60008a815260209020885b868110156117f95781548b8201529085019083016117e0565b505084890196505b509498975050505050505050565b60006020808301818452808551808352604092508286019150828160051b870101848801865b8381101561187d57888303603f19018552815180516001600160a01b0316845287015187840187905261186a8785018261172c565b9588019593505090860190600101611835565b509098975050505050505050565b60208152600061152d602083018461172c565b6020808252602b908201527f4f6e6c7920636f6e7472616374206f776e65722063616e2063616c6c2074686960408201526a3990333ab731ba34b7b71760a91b606082015260800190565b60208082526025908201527f52657761726420616d6f756e74206d757374206265206772656174657220746860408201526430b710181760d91b606082015260800190565b60208082526031908201527f4f6e6c79207265676973746572656420636f6d70616e6965732063616e2063616040820152703636103a3434b990333ab731ba34b7b71760791b606082015260800190565b6020808252602a908201527f41646472657373206d757374206265207265676973746572656420617320616e6040820152691032b6b83637bcb2b29760b11b606082015260800190565b600082198211156119dc576119dc611a7e565b500190565b6000828210156119f3576119f3611a7e565b500390565b60005b83811015611a135781810151838201526020016119fb565b83811115611a22576000848401525b50505050565b600181811c90821680611a3c57607f821691505b60208210811415611a5d57634e487b7160e01b600052602260045260246000fd5b50919050565b6000600019821415611a7757611a77611a7e565b5060010190565b634e487b7160e01b600052601160045260246000fd5b634e487b7160e01b600052604160045260246000fdfeddf252ad1be2c89b69c2b068fc378daa952ba7f163c4a11628f55a4df523b3efa26469706673582212202ddac46e8c175b0bdc1bbdf4150474fa8a70bb0fe4663d9e5dade75e0319366a64736f6c63430008040033",
  "linkReferences": {},
  "deployedLinkReferences": {}
}